:020000040800F2
:10000000002800200D1E00082D1C0008331C0008CD
:10001000391C00083F1C0008451C000800000000B7
:100020000000000000000000000000004B1C000861
:10003000571C000800000000631C00086F1C00082B
:10004000551E0008551E0008551E0008551E0008C4
:10005000551E0008551E0008551E0008551E0008B4
:10006000551E0008551E0008551E0008551E0008A4
:10007000551E0008551E0008551E0008551E000894
:10008000551E0008551E0008551E0008551E000884
:10009000551E0008551E0008551E0008551E000874
:1000A000551E0008551E0008551E0008551E000864
:1000B0007D1C0008551E000800000000551E0008A9
:1000C000551E00080000000000000000551E00083A
:1000D00000000000551E0008551E0008000000002A
:1000E000551E0008551E0008551E0008000000009F
:1000F0000000000000000000000000000000000000
:0C01000000000000000000005FF808F1A3
:10010C0010B5054C237833B9044B13B10448AFF345
:10011C0000800123237010BD60000020000000004F
:10012C008434000808B5034B1BB103490348AFF3F3
:10013C00008008BD0000000064000020843400082A
:10014C0080B400AF064B1B68012B04D1044B00227A
:10015C001A60012300E000231846BD4680BC70479E
:10016C007C00002080B400AF034B01221A6000BF5A
:10017C00BD4680BC704700BF7C00002080B500AF3E
:10018C00214B1B68214A1360214B1B681E4A1360CC
:10019C004FF400511F4802F043F903461A461C4B1A
:1001AC001A601A4B1A68184B1B689A4229D1164BC5
:1001BC001A68174B1B689A4223D1174B1A68144BB9
:1001CC001B689A420DD0124B1B68134A1360104BDC
:1001DC001B68002B15D1FFF7C5FF104BC8221A6006
:1001EC000FE00E4B1B68013B0C4A13600B4B1B685A
:1001FC00002B06D1064B1B68002B02D1064B0122AB
:10020C001A6000BF80BD00BF040000200000002069
:10021C0008000020001001400C00002010000020FD
:10022C0080B400AF064B1B68012B04D1044B002299
:10023C001A60012300E000231846BD4680BC7047BD
:10024C008000002080B400AF034B01221A6000BF75
:10025C00BD4680BC704700BF8000002080B500AF59
:10026C00214B1B68214A1360214B1B681E4A1360EB
:10027C004FF480411F4802F0D3F803461A461C4B3A
:10028C001A601A4B1A68184B1B689A4229D1164BE4
:10029C001A68174B1B689A4223D1174B1A68144BD8
:1002AC001B689A420DD0124B1B68134A1360104BFB
:1002BC001B68002B15D1FFF7C5FF104BC8221A6025
:1002CC000FE00E4B1B68013B0C4A13600B4B1B6879
:1002DC00002B06D1064B1B68002B02D1064B0122CA
:1002EC001A6000BF80BD00BF180000201400002061
:1002FC001C000020001001402000002024000020E1
:10030C0080B400AF064B1B68012B04D1044B0022B8
:10031C001A60012300E000231846BD4680BC7047DC
:10032C008400002080B400AF034B01221A6000BF90
:10033C00BD4680BC704700BF8400002080B500AF74
:10034C00214B1B68214A1360214B1B681E4A13600A
:10035C004FF400411F4802F063F803461A461C4B49
:10036C001A601A4B1A68184B1B689A4229D1164B03
:10037C001A68174B1B689A4223D1174B1A68144BF7
:10038C001B689A420DD0124B1B68134A1360104B1A
:10039C001B68002B15D1FFF7C5FF104BC8221A6044
:1003AC000FE00E4B1B68013B0C4A13600B4B1B6898
:1003BC00002B06D1064B1B68002B02D1064B0122E9
:1003CC001A6000BF80BD00BF2C0000202800002058
:1003DC0030000020001001403400002038000020C4
:1003EC0080B586B004AF03463960FB71FB79412BB5
:1003FC0040F041823B680C2B00F2D08301A252F8F2
:10040C0023F000BF450400089F040008F90400080D
:10041C0053050008AD050008070600086106000832
:10042C00BB0600081507000875070008A90B000893
:10043C00CF0700082908000800230293002301932A
:10044C00002300934FF400734FF480728021C54851
:10045C0000F050FE0023029300230193002300932D
:10046C004FF480534FF400624FF48061BD4800F0AC
:10047C0041FE0123029300230193002300934FF4C8
:10048C0000534FF480524FF40061B64800F032FE36
:10049C0089E30023029300230193012300934FF47B
:1004AC0000734FF480728021AE4800F023FE0123CC
:1004BC00029301230193012300934FF480534FF4D3
:1004CC0000624FF48061A74800F014FE01230293F0
:1004DC0001230193012300934FF400534FF48052F6
:1004EC004FF400619F4800F005FE5CE3012302938A
:1004FC0000230193002300934FF400734FF4807298
:10050C008021984800F0F6FD01230293002301930B
:10051C00002300934FF480534FF400624FF480613A
:10052C00904800F0E7FD0023029301230193002380
:10053C0000934FF400534FF480524FF400618948FC
:10054C0000F0D8FD2FE30023029300230193002336
:10055C0000934FF400734FF480728021814800F0B7
:10056C00C9FD0123029301230193002300934FF44F
:10057C0080534FF400624FF480617A4800F0BAFD6A
:10058C000023029301230193012300934FF40053A2
:10059C004FF480524FF40061724800F0ABFD02E35F
:1005AC000023029300230193012300934FF4007363
:1005BC004FF4807280216B4800F09CFD0023029365
:1005CC0001230193012300934FF480534FF40062F5
:1005DC004FF48061634800F08DFD002302930023EB
:1005EC000193012300934FF400534FF480524FF4C6
:1005FC0000615C4800F07EFDD5E2002302930123EC
:10060C000193002300934FF400734FF48072802108
:10061C00544800F06FFD0023029301230193002343
:10062C0000934FF480534FF400624FF480614D48B7
:10063C0000F060FD0023029300230193012300933B
:10064C004FF400534FF480524FF40061454800F0D2
:10065C0051FDA8E200230293012301930023009390
:10066C004FF400734FF4807280213E4800F042FD3D
:10067C000023029300230193002300934FF4805333
:10068C004FF400624FF48061364800F033FD0023D4
:10069C00029300230193002300934FF400534FF473
:1006AC0080524FF400612F4800F024FD7BE20023C0
:1006BC00029300230193002300934FF400734FF433
:1006CC0080728021274800F015FD0123029301233D
:1006DC000193012300934FF480534FF400624FF4C5
:1006EC008061204800F006FD012302930123019351
:1006FC00012300934FF400534FF480524FF40061E8
:10070C00184800F0F7FC4EE20023029300230193FB
:10071C00002300934FF400734FF480728021114832
:10072C0000F0E8FC002302930023019300230093C4
:10073C004FF480534FF400624FF48061094800F08D
:10074C00D9FC0023029300230193002300934FF460
:10075C0000534FF480524FF40061024800F0CAFC81
:10076C0021E200BF000C01400023029300230193FF
:10077C00002300934FF400734FF480728021BC4827
:10078C0000F0B8FC00230293012301930023009393
:10079C004FF480534FF400624FF48061B44800F082
:1007AC00A9FC0023029300230193012300934FF42F
:1007BC0000534FF480524FF40061AD4800F09AFCA6
:1007CC00F1E10123029301230193002300934FF4E1
:1007DC0000734FF480728021A54800F08BFC00233D
:1007EC00029300230193012300934FF480534FF4A1
:1007FC0000624FF480619E4800F07CFC0023029361
:10080C0000230193002300934FF400534FF48052C4
:10081C004FF40061964800F06DFCC4E10123029393
:10082C0001230193002300934FF400734FF4807263
:10083C0080218F4800F05EFC00230293002301937B
:10084C00002300934FF480534FF400624FF4806107
:10085C00874800F04FFC01230293002301930023EF
:10086C0000934FF400534FF480524FF400618048D2
:10087C0000F040FC97E1FB79422B40F091813B6802
:10088C00092B00F28F8101A252F823F0C108000855
:10089C000B090008550900089F090008E909000820
:1008AC00330A0008810A0008CB0A0008150B00085F
:1008BC005F0B000800230293002301930023009395
:1008CC000423022201216A4800F014FC0023029345
:1008DC000023019300230093202310220821644855
:1008EC0000F008FC012302930023019300230093E2
:1008FC004023202210215E4800F0FCFB53E1002332
:10090C00029300230193012300930423022201216B
:10091C00574800F0EFFB01230293012301930123BD
:10092C000093202310220821514800F0E3FB0123FF
:10093C0002930123019301230093402320221021D1
:10094C004B4800F0D7FB2EE10123029300230193C7
:10095C0000230093042302220121454800F0CAFB26
:10096C0001230293002301930023009320231022E0
:10097C0008213F4800F0BEFB0023029301230193A2
:10098C0000230093402320221021394800F0B2FBB1
:10099C0009E1002302930023019300230093042315
:1009AC0002220121324800F0A5FB0123029301230E
:1009BC000193002300932023102208212C4800F0DF
:1009CC0099FB0023029301230193012300934023FD
:1009DC0020221021264800F08DFBE4E00023029336
:1009EC0000230193012300930423022201212048B8
:1009FC0000F080FB00230293012301930123009359
:100A0C002023102208211A4800F074FB00230293C3
:100A1C00002301930123009340232022102114482A
:100A2C0000F068FBBFE00023029301230193002335
:100A3C0000930423022201210D4800F05BFB0023EC
:100A4C0002930123019300230093202310220821F9
:100A5C00074800F04FFB002302930023019301236E
:100A6C000093402320221021014800F043FB9AE020
:100A7C00000C0140002302930123019300230093F7
:100A8C000423022201214A4800F034FB0023029384
:100A9C0000230193002300932023102208214448B3
:100AAC0000F028FB00230293002301930023009302
:100ABC004023202210213E4800F01CFB73E0002351
:100ACC0002930023019300230093042302220121AB
:100ADC00374800F00FFB01230293012301930123FC
:100AEC000093202310220821314800F003FB01233E
:100AFC000293012301930123009340232022102110
:100B0C002B4800F0F7FA4EE00023029300230193E8
:100B1C0000230093042302220121254800F0EAFA65
:100B2C00002302930023019300230093202310221F
:100B3C0008211F4800F0DEFA0023029300230193E2
:100B4C0000230093402320221021194800F0D2FAF0
:100B5C0029E0002302930023019300230093042334
:100B6C0002220121124800F0C5FA0023029301234E
:100B7C000193002300932023102208210C4800F03D
:100B8C00B9FA00230293002301930123009340231D
:100B9C0020221021064800F0ADFA04E000BF02E06C
:100BAC0000BF00E000BF00BF0837BD4680BD00BFDE
:100BBC00000C014080B584B000AF0346B9607A6088
:100BCC00FB73FB7B412B12D1BB68012B0FD1002295
:100BDC0080212B4801F03BFC01224FF48071284806
:100BEC0001F035FC79684120FFF7FAFB43E0FB7B11
:100BFC00412B12D1BB68022B0FD100224FF4807114
:100C0C001F4801F024FC012280211D4801F01FFC2B
:100C1C0079684120FFF7E4FB2DE0FB7B422B13D1DD
:100C2C00BB68012B10D100224FF40071144801F065
:100C3C000EFC01224FF48061114801F008FC796828
:100C4C004220FFF7CDFB16E0FB7B422B13D1BB6898
:100C5C00022B10D100224FF48061094801F0F7FB00
:100C6C0001224FF40071064801F0F1FB7968422033
:100C7C00FFF7B6FBFFE700BF1037BD4680BD00BFD6
:100C8C000008014080B500AF204B1B68012B15D12B
:100C9C001F4B1B68002B11D1962001F013F81D4B34
:100CAC001B6864331C4A82FB03129211DB17D31AA4
:100CBC001A4601214120FFF77DFF24E0134B1B68EE
:100CCC00012B20D1124B1B68012B1CD1962000F05C
:100CDC00F9FF104B1B6803F164020F4B83FB0213EB
:100CEC009911D317CB1A4FF47A7101FB03F3D31A72
:100CFC000A4A82FB03125211DB17D31A1A4602213D
:100D0C004120FFF757FF00BF80BD00BFA0000020AF
:100D1C00AC00002094000020D34D62101F85EB51D5
:100D2C0080B584B004AFBA4B1B68013B032B00F2B7
:100D3C00C48101A252F823F0550D0008970D00084C
:100D4C00090F0008BB0F0008012302930123019334
:100D5C0001230093082304220221AE4800F0CAF9B3
:100D6C0001230293012301930123009340232022AA
:100D7C001021A84800F0BEF9A54B02221A60A64B20
:100D8C001B68184600F084FF9EE1FFF77BFF0123F0
:100D9C0002930123019300230093082304220221D0
:100DAC009C4800F0A7F99C4B1A689C4B1B68D31A03
:100DBC00184600F0BBFF0346002B3DD0984B1B6838
:100DCC00002B0ED1974B1B686433974A82FB03129E
:100DDC009211DB17D31A1A4601214220FFF7EAFEC3
:100DEC001DE08F4B1B68012B19D18E4B1B6803F137
:100DFC0064028D4B83FB02139911D317CB1A4FF45A
:100E0C007A7101FB03F3D31A884A82FB0312521145
:100E1C00DB17D31A1A4602214220FFF7CBFE01231F
:100E2C0002930023019301230093402320221021DD
:100E3C00784800F05FF953E0794B1B68002B1DD10B
:100E4C00784B1B686433794A82FB03125211DB170F
:100E5C00D21A774B1B68744981FB03018911DB178C
:100E6C005B1A1344734A82FB03129210DB17D31ADA
:100E7C001A4601214220FFF79DFE25E0684B1B68B6
:100E8C00012B21D1674B1B686433684A82FB031228
:100E9C005211DB17D21A664B1B68634981FB0301A5
:100EAC008911DB175B1A1A44624B83FB02139910EE
:100EBC00D317C91A0B469B000B445B00D11A0A4688
:100ECC0002214220FFF776FE0023029301230193B7
:100EDC00012300934023202210214E4800F00AF9F0
:100EEC00554B1B68012B40F0EA80494B04221A60D9
:100EFC004A4B1B68184600F0CBFEE0E0FFF7C2FE41
:100F0C00012302930023019301230093082304225D
:100F1C000221404800F0EEF8414B1B68002B0ED12B
:100F2C00404B1B686433404A82FB03129211DB175F
:100F3C00D31A1A4601214220FFF73CFE1DE0384B24
:100F4C001B68012B19D1374B1B6803F16402364B1C
:100F5C0083FB02139911D317CB1A4FF47A7101FB4F
:100F6C0003F3D31A314A82FB03125211DB17D31A43
:100F7C001A4602214220FFF71DFE01230293012392
:100F8C00019300230093402320221021214800F0DC
:100F9C00B1F8294B1B68012B40F093801C4B0222AB
:100FAC001A601D4B1B68184600F072FE89E0FFF7B3
:100FBC0069FE00230293012301930123009308236C
:100FCC0004220221134800F095F8154B1B68002BE6
:100FDC0034D1144B1B686433144A82FB0312521134
:100FEC00DB17D21A124B1B680F4981FB03018911C5
:100FFC00DB17CB1A13440F4A82FB03129210DB1738
:10100C00D31A1A4601214220FFF7D4FD3CE000BF61
:10101C00880000200008014040000020480000200B
:10102C00AC00002094000020D34D62101F85EB51C2
:10103C00440000206766666698000020244B1B68FD
:10104C00012B21D1234B1B686433234A82FB0312EF
:10105C005211DB17D21A214B1B68214981FB03016A
:10106C008911DB17CB1A1A441E4B83FB0213991000
:10107C00D317C91A0B469B000B445B00D11A0A46C6
:10108C0002214220FFF796FD0123029301230193D5
:10109C0000230093402320221021134800F02AF84B
:1010AC00124B1B68012B0ED1114B03221A600B4BF8
:1010BC001B68184600F0ECFD05E000BF04E000BF23
:1010CC0002E000BF00E000BF00BFBD4680BD00BF16
:1010DC00AC000020940000201F85EB514400002040
:1010EC00D34D6210676666660008014098000020C8
:1010FC008800002080B584B000AFF8600846114627
:10110C001A4603467B810B463B811346FB803A7E95
:10111C007B891946F86801F09AF93A7F3B891946A0
:10112C00F86801F094F997F82020FB881946F868C4
:10113C0001F08DF900BF1037BD4680BD80B584B07D
:10114C0000AFF860084611461A4603467B810B46F1
:10115C003B811346FB807B891946F86801F08FF9B7
:10116C003B891946F86801F08AF9FB881946F8683A
:10117C0001F085F900BF1037BD4680BD80B400AFCB
:10118C00074B1A68074B1B681A44074B1B689A429B
:10119C0001D0012300E000231846BD4680BC7047F7
:1011AC0044000020480000204000002080B584B09E
:1011BC0004AFBA4B1B68052B00F28B8301A252F8CB
:1011CC0023F000BF01120008E91100080913000800
:1011DC007514000817160008D9170008FFF7A0FDB2
:1011EC00FEF7AEFF0346002B00F07583AB4B0022DD
:1011FC001A6070E3012302930123019301230093EE
:10120C00082304220221A648FFF774FF012302934E
:10121C000123019301230093402320221021A04895
:10122C00FFF768FF00230293002301930023009330
:10123C004FF480734FF4807280219948FFF75AFF66
:10124C000023029300230193002300934FF4806347
:10125C004FF480624FF400719148FFF74BFF01236C
:10126C00029301230193012300934FF400734FF475
:10127C00807280218B48FFF73DFF012302930123ED
:10128C000193012300934FF480534FF400624FF409
:10129C0080618448FFF72EFF012302930123019301
:1012AC0001230093022301224FF400517D48FFF7E4
:1012BC0021FF0123029301230193012300931023A7
:1012CC00082204217748FFF715FF0123029301231D
:1012DC000193012300934023402220217148FFF702
:1012EC0009FF6E4B02221A60FA2000F005FD9320D4
:1012FC0000F0E8FC992000F0CBFCF5E26A4B1B688F
:10130C00012B14D1694B1B68002B10D1992000F0D4
:10131C00BFFC674B1B68674A82FB03121213DB1777
:10132C00D31A1A4601214120FFF744FC22E05E4B00
:10133C001B68012B1ED15D4B1B68012B1AD1992008
:10134C0000F0A6FC5A4B1A685A4B83FB0213191374
:10135C00D317CB1A42F2107101FB03F3D31A564A7E
:10136C0082FB03129211DB17D31A1A460221412079
:10137C00FFF720FC514B1B68012B0CD14B4B1B680E
:10138C00002B08D1932000F09DFC0022012142206B
:10139C00FFF710FC0FE0494B1B68012B0BD1434BA3
:1013AC001B68012B07D1932000F08CFC0222022138
:1013BC004220FFF7FFFB012302930123019301233A
:1013CC0000932023202204213548FFF793FE0123AC
:1013DC00029301230193012300934023402208210F
:1013EC002F48FFF787FE364B1B68012B08D1FA20DC
:1013FC0000F082FC1023102202212948FFF79EFEE8
:10140C00FEF77EFF0346002B03D0294B1B68284AAE
:10141C001360FEF705FF0346002B12D0244B1B680C
:10142C00284A1360224B1B6803F57A73204A136019
:10143C001F4B1B68244A934203DD1D4B4FF47A72F9
:10144C001A60FEF77DFE0346002B00F04682134B1C
:10145C0003221A60FA2000F04FFC932000F032FCBB
:10146C00992000F015FC38E20F4B1B68012B2FD193
:10147C000E4B1B68002B2BD1992000F009FC134B51
:10148C001B680C4A82FB03121213DB17D31A1A4681
:10149C0001214120FFF78EFB3DE000BF3C00002006
:1014AC0000080140000C014098000020AC00002016
:1014BC0040000020AD8BDB68D34D6210A0000020F3
:1014CC00A80000208C000020B882010044000020FD
:1014DC00B14B1B68012B1ED1B04B1B68012B1AD1D1
:1014EC00992000F0D5FBAE4B1A68AE4B83FB021370
:1014FC001913D317CB1A42F2107101FB03F3D31A51
:10150C00A94A82FB03129211DB17D31A1A46022145
:10151C004120FFF74FFBA54B1B68012B0CD19F4BB8
:10152C001B68002B08D1932000F0CCFB002201217A
:10153C004220FFF73FFB0FE09C4B1B68012B0BD1AC
:10154C00964B1B68012B07D1932000F0BBFB0322A9
:10155C0002214220FFF72EFB01230293012301936A
:10156C00012300931023102202219148FFF7C2FDA2
:10157C000123029301230193012300934023402272
:10158C0008218B48FFF7B6FD8A4B1B68012B08D14D
:10159C00FA2000F0B1FB2023202204218448FFF71D
:1015AC00CDFDFEF7ADFE0346002B03D07C4B1B6834
:1015BC007B4A1360FEF734FE0346002B12D0784BA7
:1015CC001B687D4A1360764B1B6803F57A73744A6B
:1015DC001360734B1B68794A934203DD704B4FF4D5
:1015EC007A721A60FEF7ACFD0346002B00F077818F
:1015FC00734B04221A60FA2000F07EFB932000F05B
:10160C0061FB992000F044FB69E1634B1B68012BE3
:10161C0014D1624B1B68002B10D1992000F038FBC1
:10162C00684B1B685F4A82FB03121213DB17D31A39
:10163C001A4601214120FFF7BDFA22E0564B1B68E8
:10164C00012B1ED1554B1B68012B1AD1992000F090
:10165C001FFB5C4B1A68534B83FB02131913D317F4
:10166C00CB1A42F2107101FB03F3D31A4E4A82FBE0
:10167C0003129211DB17D31A1A4602214120FFF7ED
:10168C0099FA4A4B1B68012B0CD1444B1B68002B5D
:10169C0008D1932000F016FB002201214220FFF715
:1016AC0089FA0FE0414B1B68012B0BD13B4B1B689C
:1016BC00012B07D1932000F005FB042202214220CC
:1016CC00FFF778FA0123029301230193012300937E
:1016DC001023102202213648FFF70CFD0123029340
:1016EC00012301930123009320232022042130485D
:1016FC00FFF700FD2F4B1B68012B08D1FA2000F0DF
:10170C00FBFA4023402208212948FFF717FDFEF77A
:10171C00F7FD0346002B0DD0FFF730FD0346002BE1
:10172C0008D0992000F0B4FA932000F0CBFA244BA7
:10173C0005221A60FEF774FD0346002B12D0214BD4
:10174C001B68214A13601F4B1B6803F57A731D4AF3
:10175C0013601C4B1B68194A934203DD194B4FF461
:10176C007A721A60FEF7ECFC0346002B00F0B9808D
:10177C00FFF704FD0346002B09D0992000F088FAEE
:10178C00932000F09FFA0E4B05221A60A9E00C4B37
:10179C0001221A60A5E000BF98000020AC000020D8
:1017AC0044000020AD8BDB68D34D6210A0000020FC
:1017BC0000080140A800002090000020B882010021
:1017CC003C000020480000204C0000200123029324
:1017DC000123019301230093202320220421444858
:1017EC00FFF788FC0123029301230193012300934B
:1017FC001023102202213E48FFF77CFC01230293A8
:10180C0001230193012300934023402208213848EF
:10181C00FFF770FC374B1B68012B0CD1364B1B6848
:10182C00002B08D1992000F033FA0B220121412022
:10183C00FFF7C0F90FE02F4B1B68012B0BD12E4B80
:10184C001B68012B07D1992000F022FA0C220221EF
:10185C004120FFF7AFF9294B1B68012B0CD1264B0C
:10186C001B68002B08D1932000F02CFA00220121D8
:10187C004220FFF79FF90FE0204B1B68012B0BD187
:10188C001D4B1B68012B07D1932000F01BFA05227E
:10189C0002214220FFF78EF9194B1B68194A13607D
:1018AC00194B1B68194A1360194B1B68194A1360B2
:1018BC00FEF746FC0346002B02D0174B02221A609F
:1018CC00FEF71EFD0346002B0DD0134B01221A60B0
:1018DC0009E000BF08E000BF06E000BF04E000BF65
:1018EC0002E000BF00E000BF00BFBD4680BD00BFEE
:1018FC000008014098000020AC000020A00000204F
:10190C008C000020400000209000002044000020AB
:10191C004C000020480000203C00002080B500AFA7
:10192C0000F094FA00F016F800F09CF800F04EF875
:10193C00054801F0E9F9054B01221A60044B01221C
:10194C001A60FFF733FCFCE7B00000208800002091
:10195C003C00002080B590B000AF07F1180328229E
:10196C000021184601F080FD3B1D00221A605A60D0
:10197C009A60DA601A610223BB610123BB621023F7
:10198C00FB6200237B6307F11803184600F090FDFF
:10199C000346002B01D000F0E7F80F237B600023F7
:1019AC00BB600023FB6000233B6100237B613B1D7C
:1019BC000021184600F0FCFF0346002B01D000F07C
:1019CC00D3F800BF4037BD4680BD000080B586B05F
:1019DC0000AF07F1080300221A605A609A60DA60BF
:1019EC003B4600221A605A601D4B4FF080421A6031
:1019FC001B4B41F63F725A60194B00229A60184BF0
:101A0C000922DA60164B00221A61154B00229A61EA
:101A1C00134801F029F90346002B01D000F0A4F87B
:101A2C004FF48053BB6007F1080319460C4801F0D2
:101A3C00A7FA0346002B01D000F096F800233B6078
:101A4C0000237B603B461946054801F07FFC0346AA
:101A5C00002B01D000F088F800BF1837BD4680BDC0
:101A6C00B000002080B588B000AF07F11003002251
:101A7C001A605A609A60DA602F4B9B692E4A43F0C9
:101A8C00100393612C4B9B6903F01003FB60FB6804
:101A9C00294B9B69284A43F004039361264B9B69AD
:101AAC0003F00403BB60BB68234B9B69224A43F0E1
:101ABC0008039361204B9B6903F008037B607B68F0
:101ACC00002240F2FE711D4800F0C1FC002243F6DA
:101ADC00FF711B4800F0BBFC4FF460433B610023DB
:101AEC007B610123BB6107F110031946154800F017
:101AFC001DFB40F2FE733B6101237B610023BB6144
:101B0C000223FB6107F1100319460C4800F00EFB91
:101B1C0043F6FF733B6101237B610023BB6102230E
:101B2C00FB6107F110031946054800F0FFFA00BFEE
:101B3C002037BD4680BD00BF0010024000080140A8
:101B4C00000C01400010014080B582B000AF7860FD
:101B5C0000F00AF9FEF712FBFEF780FBFEF7EEFB36
:101B6C0000BF0837BD4680BD80B400AF72B600BF61
:101B7C00FEE7000080B485B000AF154B9B69144A9A
:101B8C0043F001039361124B9B6903F00103BB60AB
:101B9C00BB680F4BDB690E4A43F08053D3610C4B8F
:101BAC00DB6903F080537B607B680A4B5B68FB60EE
:101BBC00FB6823F0E063FB60FB6843F08063FB6031
:101BCC00044AFB68536000BF1437BD4680BC7047A5
:101BDC00001002400000014080B584B000AF786076
:101BEC007B681B68B3F1804F13D10C4BDB690B4A3C
:101BFC0043F00103D361094BDB6903F00103FB6084
:101C0C00FB68002200211C2000F059FA1C2000F077
:101C1C0072FA00BF1037BD4680BD00BF00100240F5
:101C2C0080B400AFFEE780B400AFFEE780B400AF35
:101C3C00FEE780B400AFFEE780B400AFFEE780B4EF
:101C4C0000AF00BFBD4680BC704780B400AF00BF82
:101C5C00BD4680BC704780B400AF00BFBD4680BCA1
:101C6C00704780B500AF00F037F900BF80BD0000B1
:101C7C0080B500AF024801F093F800BF80BD00BFF3
:101C8C00B000002080B400AF00BFBD4680BC7047E0
:101C9C0080B483B000AF7860074B1B687A6892FB06
:101CAC00F3F3064A1360064B00221A6000BF0C3790
:101CBC00BD4680BC704700BF54000020940000203B
:101CCC009800002080B483B000AF7860074B1B688D
:101CDC007A6892FBF3F3064A1360064B00221A60F3
:101CEC0000BF0C37BD4680BC704700BF54000020BD
:101CFC009C000020A000002080B483B000AF78606E
:101D0C00074B1B687A6892FBF3F3064A1360064B89
:101D1C0000221A6000BF0C37BD4680BC704700BF64
:101D2C0054000020A4000020A800002080B483B040
:101D3C0000AF78607B680A4A82FB03129210DB17B3
:101D4C00D31A7B60074B1B687A689A4201DB01232C
:101D5C0000E0002318460C37BD4680BC704700BF1E
:101D6C00676666669400002080B400AF1D4B1B684C
:101D7C00002B05DD1B4B1B68013B1A4A136002E06C
:101D8C00194B01221A60194B1B68002B05DD174BF0
:101D9C001B68013B154A136013E0154B01221A60B6
:101DAC00144B1B68002B02D0012B06D009E0114B01
:101DBC001B6801330F4A136003E00E4B00221A60BC
:101DCC0000BF0D4B1B68002B05DD0B4B1B68013B4B
:101DDC00094A136002E0094B01221A6000BFBD469C
:101DEC0080BC704794000020980000209C000020CC
:101DFC00A0000020AC000020A4000020A8000020BF
:101E0C00FFF740FF0B480C490C4A002302E0D45862
:101E1C00C4500433C4188C42F9D3094A094C00232A
:101E2C0001E013600432A242FBD301F0F9FAFFF790
:101E3C0075FD70470000002060000020C8340008C9
:101E4C0060000020FC000020FEE7000080B500AF21
:101E5C00084B1B68074A43F010031360032000F083
:101E6C0023F90F2000F008F8FFF784FE0023184632
:101E7C0080BD00BF0020024080B582B000AF78600A
:101E8C00124B1A68124B1B7819464FF47A73B3FB3A
:101E9C00F1F3B2FBF3F3184600F03BF90346002BC9
:101EAC0001D001230EE07B680F2B0AD80022796841
:101EBC004FF0FF3000F003F9064A7B6813600023F3
:101ECC0000E0012318460837BD4680BD50000020B5
:101EDC005C0000205800002080B400AF054B1B783C
:101EEC001A46054B1B681344034A136000BFBD46DA
:101EFC0080BC70475C000020F800002080B400AF6C
:101F0C00024B1B681846BD4680BC7047F800002089
:101F1C0080B485B000AF78607B6803F00703FB608A
:101F2C000C4BDB68BB60BA684FF6FF031340BB6019
:101F3C00FB681A02BB68134343F0BF6343F40033DE
:101F4C00BB60044ABB68D36000BF1437BD4680BC7D
:101F5C00704700BF00ED00E080B400AF044BDB68BD
:101F6C001B0A03F007031846BD4680BC704700BF30
:101F7C0000ED00E080B483B000AF0346FB7197F92D
:101F8C000730002B0BDBFB7903F01F02064997F996
:101F9C0007305B09012000FA02F241F8232000BF50
:101FAC000C37BD4680BC704700E100E080B483B0C4
:101FBC0000AF03463960FB7197F90730002B0ADB41
:101FCC003B68DAB20C4997F907301201D2B20B44D4
:101FDC0083F800230AE03B68DAB20849FB7903F086
:101FEC000F03043B1201D2B20B441A7600BF0C371C
:101FFC00BD4680BC704700BF00E100E000ED00E092
:10200C0080B489B000AFF860B9607A60FB6803F007
:10201C000703FB61FB69C3F10703042B28BF0423EF
:10202C00BB61FB690433062B02D9FB69033B00E05F
:10203C0000237B614FF0FF32BB6902FA03F3DA43F2
:10204C00BB681A407B699A404FF0FF317B6901FAFB
:10205C0003F3D9437B680B40134318462437BD4622
:10206C0080BC704780B582B000AF78607B68013B64
:10207C00B3F1807F01D301230FE00A4A7B68013B57
:10208C0053600F214FF0FF30FFF790FF054B0022FC
:10209C009A60044B07221A60002318460837BD4685
:1020AC0080BD00BF10E000E080B582B000AF78606A
:1020BC007868FFF72DFF00BF0837BD4680BD80B59F
:1020CC0086B000AF0346B9607A60FB7300237B6176
:1020DC00FFF742FF78617A68B9687869FFF790FF7B
:1020EC00024697F90F3011461846FFF75FFF00BF05
:1020FC001837BD4680BD80B582B000AF0346FB717A
:10210C0097F907301846FFF735FF00BF0837BD4673
:10211C0080BD80B582B000AF78607868FFF7A2FF11
:10212C00034618460837BD4680BD000080B48BB00E
:10213C0000AF7860396000237B6200233B6248E18A
:10214C0001227B6A02FA03F3FB613B681B68FA69A4
:10215C001340BB61BA69FB699A4240F037813B6816
:10216C005B68A34A93425ED0A14A934275D8A14AB8
:10217C00934258D09F4A93426FD89F4A934252D071
:10218C009D4A934269D89D4A93424CD09B4A9342B4
:10219C0063D89B4A934246D0994A93425DD8122BFE
:1021AC002AD8122B59D801A252F823F03322000856
:1021BC000D2200081F220008612200086722000877
:1021CC0067220008672200086722000867220008BF
:1021DC0067220008672200086722000867220008AF
:1021EC00672200086722000867220008672200089F
:1021FC001522000829220008824A934213D02CE0B1
:10220C003B68DB683B6229E03B68DB6804333B627C
:10221C0024E03B68DB6808333B621FE03B68DB680B
:10222C000C333B621AE03B689B68002B02D1042301
:10223C003B6213E03B689B68012B05D108233B6292
:10224C007B68FA691A6109E008233B627B68FA69CA
:10225C005A6103E000233B6200E000BFBB69FF2B27
:10226C0001D87B6801E07B6804337B61BB69FF2B81
:10227C0002D87B6A9B0002E07B6A083B9B003B61B7
:10228C007B691A680F213B6901FA03F3DB431A409F
:10229C00396A3B6901FA03F31A437B691A603B689C
:1022AC005B6803F08053002B00F09080564B9B69C9
:1022BC00554A43F001039361534B9B6903F00103AF
:1022CC00BB60BB68514A7B6A9B08023352F82330CF
:1022DC00FB607B6A03F003039B000F2202FA03F3FB
:1022EC00DB43FA681340FB607B68494A93420DD08C
:1022FC007B68484A934207D07B68474A934201D196
:10230C00022304E0032302E0012300E000237A6AA5
:10231C0002F0030292009340FA681343FB603B49BE
:10232C007B6A9B080233FA6841F823203B685B68A0
:10233C0003F48013002B06D0384B9A683749BB69DD
:10234C0013438B6006E0354B9A68BB69DB4333491A
:10235C0013408B603B685B6803F40013002B06D0C2
:10236C002E4BDA682D49BB691343CB6006E02B4B2F
:10237C00DA68BB69DB4329491340CB603B685B6877
:10238C0003F40033002B06D0244B5A682349BB6955
:10239C0013434B6006E0214B5A68BB69DB431F4972
:1023AC0013404B603B685B6803F48033002B06D012
:1023BC001A4B1A681949BB6913430B6006E0174B9B
:1023CC001A68BB69DB43154913400B607B6A013308
:1023DC007B623B681A687B6A22FA03F3002B7FF45A
:1023EC00AFAE00BF00BF2C37BD4680BC704700BFEE
:1023FC0000003210000031100000221000002110EB
:10240C0000001210000011100010024000000140EA
:10241C0000080140000C0140001001400004014084
:10242C0080B485B000AF78600B467B807B689A687F
:10243C007B881340002B02D00123FB7301E00023A7
:10244C00FB73FB7B18461437BD4680BC704780B4C9
:10245C0083B000AF78600B467B8013467B707B7833
:10246C00002B03D07A887B681A6103E07B881A04FE
:10247C007B681A6100BF0C37BD4680BC704780B4C6
:10248C0085B000AF78600B467B807B68DB68FB60B7
:10249C007A88FB6813401A04FB68D9437B880B408D
:1024AC001A437B681A6100BF1437BD4680BC704765
:1024BC0080B586B000AF78607B68002B01D101231A
:1024CC006CE27B681B6803F00103002B00F0878033
:1024DC00924B5B6803F00C03042B0CD08F4B5B68A6
:1024EC0003F00C03082B12D18C4B5B6803F4803384
:1024FC00B3F5803F0BD1894B1B6803F40033002BE1
:10250C006CD07B685B68002B68D1012346E27B684A
:10251C005B68B3F5803F06D1804B1B687F4A43F460
:10252C00803313602EE07B685B68002B0CD17B4BF7
:10253C001B687A4A23F480331360784B1B68774A04
:10254C0023F4802313601DE07B685B68B3F5A02F38
:10255C000CD1724B1B68714A43F4802313606F4B90
:10256C001B686E4A43F4803313600BE06B4B1B68A3
:10257C006A4A23F480331360684B1B68674A23F460
:10258C00802313607B685B68002B13D0FFF7B6FCCD
:10259C00386108E0FFF7B2FC02463B69D31A642BA2
:1025AC0001D90323FAE15D4B1B6803F40033002BC4
:1025BC00F0D014E0FFF7A2FC386108E0FFF79EFCB6
:1025CC0002463B69D31A642B01D90323E6E1534B32
:1025DC001B6803F40033002BF0D100E000BF7B68D4
:1025EC001B6803F00203002B63D04C4B5B6803F0B9
:1025FC000C03002B0BD0494B5B6803F00C03082B2E
:10260C001CD1464B5B6803F48033002B16D1434B33
:10261C001B6803F00203002B05D07B681B69012BA0
:10262C0001D00123BAE13D4B1B6823F0F8027B6813
:10263C005B69DB00394913430B603AE07B681B692B
:10264C00002B20D0364B01221A60FFF757FC386163
:10265C0008E0FFF753FC02463B69D31A022B01D961
:10266C0003239BE12D4B1B6803F00203002BF0D0DE
:10267C002A4B1B6823F0F8027B685B69DB00274957
:10268C0013430B6015E0264B00221A60FFF736FC53
:10269C00386108E0FFF732FC02463B69D31A022B83
:1026AC0001D903237AE11D4B1B6803F00203002BB5
:1026BC00F0D17B681B6803F00803002B3AD07B68D1
:1026CC009B69002B19D0174B01221A60FFF716FCDF
:1026DC00386108E0FFF712FC02463B69D31A022B63
:1026EC0001D903235AE10D4B5B6A03F00203002B63
:1026FC00F0D0012000F09AFA1CE00A4B00221A607C
:10270C00FFF7FCFB38610FE0FFF7F8FB02463B6973
:10271C00D31A022B08D9032340E100BF001002405A
:10272C0000004242800442429E4B5B6A03F002036B
:10273C00002BE9D17B681B6803F00403002B00F02D
:10274C00A6800023FB75974BDB6903F08053002BAD
:10275C000DD1944BDB69934A43F08053D361914B79
:10276C00DB6903F08053BB60BB680123FB758E4BA8
:10277C001B6803F48073002B18D18B4B1B688A4A9F
:10278C0043F480731360FFF7B9FB386108E0FFF77F
:10279C00B5FB02463B69D31A642B01D90323FDE038
:1027AC00814B1B6803F48073002BF0D07B68DB68D3
:1027BC00012B06D17B4B1B6A7A4A43F0010313624F
:1027CC002DE07B68DB68002B0CD1764B1B6A754ABD
:1027DC0023F001031362734B1B6A724A23F0040348
:1027EC0013621CE07B68DB68052B0CD16D4B1B6AFC
:1027FC006C4A43F0040313626A4B1B6A694A43F048
:10280C00010313620BE0674B1B6A664A23F001035A
:10281C001362644B1B6A634A23F0040313627B68E4
:10282C00DB68002B15D0FFF769FB38610AE0FFF776
:10283C0065FB02463B69D31A41F28832934201D9B7
:10284C000323ABE0574B1B6A03F00203002BEED0C3
:10285C0014E0FFF753FB38610AE0FFF74FFB024629
:10286C003B69D31A41F28832934201D9032395E094
:10287C004C4B1B6A03F00203002BEED1FB7D012BAA
:10288C0005D1484BDB69474A23F08053D3617B6801
:10289C00DB69002B00F08180424B5B6803F00C037A
:1028AC00082B61D07B68DB69022B46D13F4B0022A1
:1028BC001A60FFF723FB386108E0FFF71FFB0246A5
:1028CC003B69D31A022B01D9032367E0354B1B68F4
:1028DC0003F00073002BF0D17B681B6AB3F5803FCB
:1028EC0008D1304B5B6823F400327B689B682D4920
:1028FC0013434B602B4B5B6823F474127B68196A8F
:10290C007B685B6A0B43274913434B60274B0122BF
:10291C001A60FFF7F3FA386108E0FFF7EFFA0246A6
:10292C003B69D31A022B01D9032337E01D4B1B68DB
:10293C0003F00073002BF0D02FE01C4B00221A6028
:10294C00FFF7DCFA386108E0FFF7D8FA02463B697A
:10295C00D31A022B01D9032320E0124B1B6803F07E
:10296C000073002BF0D118E07B68DB69012B01D1DF
:10297C00012313E00B4B5B68FB60FB6803F48032B4
:10298C007B681B6A9A4206D1FB6803F470127B6861
:10299C005B6A9A4201D0012300E0002318461837E5
:1029AC00BD4680BD001002400070004060004242F5
:1029BC0080B584B000AF786039607B68002B01D1A2
:1029CC000123D0E06A4B1B6803F007033A689A4274
:1029DC0010D9674B1B6823F0070265493B6813430A
:1029EC000B60634B1B6803F007033A689A4201D0F3
:1029FC000123B8E07B681B6803F00203002B20D096
:102A0C007B681B6803F00403002B05D0594B5B68F3
:102A1C00584A43F4E06353607B681B6803F0080377
:102A2C00002B05D0534B5B68524A43F46053536000
:102A3C00504B5B6823F0F0027B689B684D49134355
:102A4C004B607B681B6803F00103002B40D07B6854
:102A5C005B68012B07D1474B1B6803F40033002B39
:102A6C0015D101237FE07B685B68022B07D1414BBA
:102A7C001B6803F00073002B09D1012373E03D4B5D
:102A8C001B6803F00203002B01D101236BE0394BCF
:102A9C005B6823F003027B685B68364913434B6029
:102AAC00FFF72CFAF8600AE0FFF728FA0246FB68F9
:102ABC00D31A41F28832934201D9032353E02D4BB0
:102ACC005B6803F00C027B685B689B009A42EBD15D
:102ADC00274B1B6803F007033A689A4210D2244B29
:102AEC001B6823F0070222493B6813430B60204B01
:102AFC001B6803F007033A689A4201D0012332E0C5
:102B0C007B681B6803F00403002B08D0194B5B682F
:102B1C0023F4E0627B68DB68164913434B607B68E7
:102B2C001B6803F00803002B09D0124B5B6823F4DD
:102B3C0060527B681B69DB000E4913434B6000F04D
:102B4C0021F802460B4B5B681B0903F00F030A4983
:102B5C00CB5C22FA03F3094A1360094B1B68184635
:102B6C00FFF78AF9002318461037BD4680BD00BF19
:102B7C0000200240001002409C340008500000204D
:102B8C005800002080B487B000AF0023FB60002306
:102B9C00BB6000237B6100237B6000233B611E4BE9
:102BAC005B68FB60FB6803F00C03042B02D0082B62
:102BBC0003D027E0194B3B6127E0FB689B0C03F02B
:102BCC000F03174AD35C7B60FB6803F48033002B44
:102BDC0010D0114B5B685B0C03F00103114AD35C02
:102BEC00BB607B680D4A02FB03F2BB68B2FBF3F3DC
:102BFC007B6104E07B680C4A02FB03F37B617B691D
:102C0C003B6102E0054B3B6100BF3B6918461C373A
:102C1C00BD4680BC704700BF0010024000127A0015
:102C2C00AC340008BC34000800093D0080B485B009
:102C3C0000AF78600A4B1B680A4AA2FB03235B0AAD
:102C4C007A6802FB03F3FB6000BFFB685A1EFA6054
:102C5C00002BF9D100BF00BF1437BD4680BC7047B4
:102C6C0050000020D34D621080B582B000AF786068
:102C7C007B68002B01D1012341E07B6893F83D3048
:102C8C00DBB2002B06D17B68002283F83C207868ED
:102C9C00FEF7A2FF7B68022283F83D207B681A684E
:102CAC007B6804331946104600F056FA7B68012203
:102CBC0083F846207B68012283F83E207B68012242
:102CCC0083F83F207B68012283F840207B68012237
:102CDC0083F841207B68012283F842207B68012223
:102CEC0083F843207B68012283F844207B6801220F
:102CFC0083F845207B68012283F83D200023184689
:102D0C000837BD4680BD000080B485B000AF786048
:102D1C007B6893F83D30DBB2012B01D0012335E009
:102D2C007B68022283F83D207B681B68DA687B682D
:102D3C001B6842F00102DA607B681B68164A9342FA
:102D4C0009D07B681B68B3F1804F04D07B681B688B
:102D5C00124A934211D17B681B689B6803F00703EE
:102D6C00FB60FB68062B10D07B681B681A687B68BD
:102D7C001B6842F001021A6007E07B681B681A6846
:102D8C007B681B6842F001021A6000231846143756
:102D9C00BD4680BC704700BF002C014000040040C1
:102DAC0080B584B000AF78607B681B68DB68FB6023
:102DBC007B681B681B69BB60BB6803F00203002BBC
:102DCC0020D0FB6803F00203002B1BD07B681B6830
:102DDC006FF002021A617B6801221A777B681B680C
:102DEC009B6903F00303002B03D0786800F098F97B
:102DFC0005E0786800F08BF9786800F09AF97B6848
:102E0C0000221A77BB6803F00403002B20D0FB6868
:102E1C0003F00403002B1BD07B681B686FF00402CB
:102E2C001A617B6802221A777B681B689B6903F422
:102E3C004073002B03D0786800F072F905E07868D5
:102E4C0000F065F9786800F074F97B6800221A7755
:102E5C00BB6803F00803002B20D0FB6803F00803C9
:102E6C00002B1BD07B681B686FF008021A617B6813
:102E7C0004221A777B681B68DB6903F00303002BC1
:102E8C0003D0786800F04CF905E0786800F03FF961
:102E9C00786800F04EF97B6800221A77BB6803F063
:102EAC001003002B20D0FB6803F01003002B1BD069
:102EBC007B681B686FF010021A617B6808221A7716
:102ECC007B681B68DB6903F44073002B03D07868C4
:102EDC0000F026F905E0786800F019F9786800F040
:102EEC0028F97B6800221A77BB6803F00103002BDA
:102EFC000CD0FB6803F00103002B07D07B681B6828
:102F0C006FF001021A617868FEF71EFEBB6803F0D1
:102F1C008003002B0CD0FB6803F08003002B07D040
:102F2C007B681B686FF080021A61786800F06FFA9A
:102F3C00BB6803F04003002B0CD0FB6803F040038C
:102F4C00002B07D07B681B686FF040021A61786811
:102F5C0000F0F8F8BB6803F02003002B0CD0FB68E2
:102F6C0003F02003002B07D07B681B686FF0200256
:102F7C001A61786800F042FA00BF1037BD4680BD78
:102F8C0080B584B000AF786039600023FB737B6838
:102F9C0093F83C30012B01D10223B4E07B68012271
:102FAC0083F83C207B68022283F83D207B681B68F9
:102FBC009B68BB60BB6823F07703BB60BB6823F4E2
:102FCC007F43BB607B681B68BA689A603B681B6870
:102FDC00B3F5005F3ED0B3F5005F00F28780B3F528
:102FEC00805F00F08680B3F5805F7FD8702B1AD09D
:102FFC00702B7BD8602B50D0602B77D8502B3CD0CB
:10300C00502B73D8402B58D0402B6FD8302B64D01A
:10301C00302B6BD8202B60D0202B67D8002B5CD0AA
:10302C00102B5AD062E07B6818683B6899683B6843
:10303C005A683B68DB6800F06AF97B681B689B6820
:10304C00BB60BB6843F07703BB607B681B68BA68E6
:10305C009A604FE07B6818683B6899683B685A68CF
:10306C003B68DB6800F053F97B681B689A687B68E7
:10307C001B6842F480429A603CE07B6818683B68AD
:10308C0059683B68DB681A4600F0CAF87B681B6815
:10309C005021184600F021F92CE07B6818683B6839
:1030AC0059683B68DB681A4600F0E8F87B681B68D7
:1030BC006021184600F011F91CE07B6818683B6829
:1030CC0059683B68DB681A4600F0AAF87B681B68F5
:1030DC004021184600F001F90CE07B681A683B6847
:1030EC001B681946104600F0F8F803E00123FB7347
:1030FC0000E000BF7B68012283F83D207B68002242
:10310C0083F83C20FB7B18461037BD4680BD80B44D
:10311C0083B000AF786000BF0C37BD4680BC7047F1
:10312C0080B483B000AF786000BF0C37BD4680BC64
:10313C00704780B483B000AF786000BF0C37BD46D9
:10314C0080BC704780B483B000AF786000BF0C3790
:10315C00BD4680BC7047000080B485B000AF78607D
:10316C0039607B681B68FB607B682B4A934207D0F5
:10317C007B68B3F1804F03D07B68284A934208D117
:10318C00FB6823F07003FB603B685B68FA681343D1
:10319C00FB607B68204A934207D07B68B3F1804F79
:1031AC0003D07B681D4A934208D1FB6823F440731B
:1031BC00FB603B68DB68FA681343FB60FB6823F039
:1031CC0080023B685B691343FB607B68FA681A609A
:1031DC003B689A687B68DA623B681A687B689A621B
:1031EC007B680D4A934203D13B681A697B681A636A
:1031FC007B6801225A617B681B6903F00103002B79
:10320C0005D07B681B6923F001027B681A6100BF43
:10321C001437BD4680BC7047002C014000040040B0
:10322C0080B487B000AFF860B9607A60FB681B6A45
:10323C007B61FB681B6A23F00102FB681A62FB6866
:10324C009B693B613B6923F0F0033B617B681B018D
:10325C003A6913433B617B6923F00A037B617A690A
:10326C00BB6813437B61FB683A699A61FB687A69B6
:10327C001A6200BF1C37BD4680BC704780B487B053
:10328C0000AFF860B9607A60FB681B6A7B61FB6811
:10329C001B6A23F01002FB681A62FB689B693B6196
:1032AC003B6923F470433B617B681B033A6913430E
:1032BC003B617B6923F0A0037B61BB681B017A69CE
:1032CC0013437B61FB683A699A61FB687A691A62FD
:1032DC0000BF1C37BD4680BC704780B485B000AFC2
:1032EC00786039607B689B68FB60FB6823F0700337
:1032FC00FB603A68FB68134343F00703FB607B6891
:10330C00FA689A6000BF1437BD4680BC704780B421
:10331C0087B000AFF860B9607A603B60FB689B686F
:10332C007B617B6923F47F437B613B681A027B687A
:10333C001A43BB6813437A6913437B61FB687A6950
:10334C009A6000BF1C37BD4680BC704780B485B006
:10335C0000AF786039607B6893F83C30012B01D169
:10336C00022341E07B68012283F83C207B68022227
:10337C0083F83D207B681B685B68FB607B681B687F
:10338C009B68BB60FB6823F07003FB603B681B68A9
:10339C00FA681343FB607B681B68FA685A607B68A9
:1033AC001B68144A934209D07B681B68B3F1804FA9
:1033BC0004D07B681B68104A93420CD1BB6823F085
:1033CC008003BB603B685B68BA681343BB607B6877
:1033DC001B68BA689A607B68012283F83D207B6881
:1033EC00002283F83C20002318461437BD4680BCCD
:1033FC00704700BF002C01400004004080B483B033
:10340C0000AF786000BF0C37BD4680BC704780B4FD
:10341C0083B000AF786000BF0C37BD4680BC7047EE
:10342C0070B500260C4D0D4C641BA410A64209D19E
:10343C0000F022F800260A4D0A4C641BA410A64288
:10344C0005D170BD55F8043B98470136EEE755F8A9
:10345C00043B98470136F2E7C0340008C03400083A
:10346C00C0340008C434000803460244934200D11F
:10347C00704703F8011BF9E7F8B500BFF8BC08BCAE
:10348C009E467047F8B500BFF8BC08BC9E46704716
:10349C0000000000000000000102030406070809F8
:1034AC0002030405060708090A0B0C0D0E0F101079
:0434BC000102000009
:0434C00031010008CE
:0434C4000D010008EE
:1034C80001000000010000000100000001000000F0
:1034D800C800000001000000010000000100000019
:1034E80001000000C8000000010000000100000009
:1034F8000100000001000000C8000000FFFFFFFFFE
:10350800B80B0000E8030000D0070000B80B00006B
:1035180000127A000A0000001000000001000000FC
:0400000508001E0DC4
:00000001FF
